{
  "_format": "hh-sol-artifact-1",
  "contractName": "MyEpicNFT",
  "sourceName": "contracts/MyEpicNFT.sol",
  "abi": [
    {
      "inputs": [],
      "stateMutability": "nonpayable",
      "type": "constructor"
    },
    {
      "anonymous": false,
      "inputs": [
        {
          "indexed": true,
          "internalType": "address",
          "name": "owner",
          "type": "address"
        },
        {
          "indexed": true,
          "internalType": "address",
          "name": "approved",
          "type": "address"
        },
        {
          "indexed": true,
          "internalType": "uint256",
          "name": "tokenId",
          "type": "uint256"
        }
      ],
      "name": "Approval",
      "type": "event"
    },
    {
      "anonymous": false,
      "inputs": [
        {
          "indexed": true,
          "internalType": "address",
          "name": "owner",
          "type": "address"
        },
        {
          "indexed": true,
          "internalType": "address",
          "name": "operator",
          "type": "address"
        },
        {
          "indexed": false,
          "internalType": "bool",
          "name": "approved",
          "type": "bool"
        }
      ],
      "name": "ApprovalForAll",
      "type": "event"
    },
    {
      "anonymous": false,
      "inputs": [
        {
          "indexed": false,
          "internalType": "address",
          "name": "sender",
          "type": "address"
        },
        {
          "indexed": false,
          "internalType": "uint256",
          "name": "tokenId",
          "type": "uint256"
        }
      ],
      "name": "NewEpicNFTMinted",
      "type": "event"
    },
    {
      "anonymous": false,
      "inputs": [
        {
          "indexed": true,
          "internalType": "address",
          "name": "from",
          "type": "address"
        },
        {
          "indexed": true,
          "internalType": "address",
          "name": "to",
          "type": "address"
        },
        {
          "indexed": true,
          "internalType": "uint256",
          "name": "tokenId",
          "type": "uint256"
        }
      ],
      "name": "Transfer",
      "type": "event"
    },
    {
      "inputs": [
        {
          "internalType": "address",
          "name": "to",
          "type": "address"
        },
        {
          "internalType": "uint256",
          "name": "tokenId",
          "type": "uint256"
        }
      ],
      "name": "approve",
      "outputs": [],
      "stateMutability": "nonpayable",
      "type": "function"
    },
    {
      "inputs": [
        {
          "internalType": "address",
          "name": "owner",
          "type": "address"
        }
      ],
      "name": "balanceOf",
      "outputs": [
        {
          "internalType": "uint256",
          "name": "",
          "type": "uint256"
        }
      ],
      "stateMutability": "view",
      "type": "function"
    },
    {
      "inputs": [
        {
          "internalType": "uint256",
          "name": "tokenId",
          "type": "uint256"
        }
      ],
      "name": "getApproved",
      "outputs": [
        {
          "internalType": "address",
          "name": "",
          "type": "address"
        }
      ],
      "stateMutability": "view",
      "type": "function"
    },
    {
      "inputs": [],
      "name": "getCurrentTokenId",
      "outputs": [
        {
          "internalType": "uint256",
          "name": "",
          "type": "uint256"
        }
      ],
      "stateMutability": "view",
      "type": "function"
    },
    {
      "inputs": [
        {
          "internalType": "address",
          "name": "owner",
          "type": "address"
        },
        {
          "internalType": "address",
          "name": "operator",
          "type": "address"
        }
      ],
      "name": "isApprovedForAll",
      "outputs": [
        {
          "internalType": "bool",
          "name": "",
          "type": "bool"
        }
      ],
      "stateMutability": "view",
      "type": "function"
    },
    {
      "inputs": [],
      "name": "makeAnEpicNFT",
      "outputs": [],
      "stateMutability": "nonpayable",
      "type": "function"
    },
    {
      "inputs": [],
      "name": "name",
      "outputs": [
        {
          "internalType": "string",
          "name": "",
          "type": "string"
        }
      ],
      "stateMutability": "view",
      "type": "function"
    },
    {
      "inputs": [
        {
          "internalType": "uint256",
          "name": "tokenId",
          "type": "uint256"
        }
      ],
      "name": "ownerOf",
      "outputs": [
        {
          "internalType": "address",
          "name": "",
          "type": "address"
        }
      ],
      "stateMutability": "view",
      "type": "function"
    },
    {
      "inputs": [
        {
          "internalType": "uint256",
          "name": "tokenId",
          "type": "uint256"
        }
      ],
      "name": "pickRandomColor",
      "outputs": [
        {
          "internalType": "string",
          "name": "",
          "type": "string"
        }
      ],
      "stateMutability": "view",
      "type": "function"
    },
    {
      "inputs": [
        {
          "internalType": "uint256",
          "name": "tokenId",
          "type": "uint256"
        }
      ],
      "name": "pickRandomFirstWord",
      "outputs": [
        {
          "internalType": "string",
          "name": "",
          "type": "string"
        }
      ],
      "stateMutability": "view",
      "type": "function"
    },
    {
      "inputs": [
        {
          "internalType": "uint256",
          "name": "tokenId",
          "type": "uint256"
        }
      ],
      "name": "pickRandomSecondWord",
      "outputs": [
        {
          "internalType": "string",
          "name": "",
          "type": "string"
        }
      ],
      "stateMutability": "view",
      "type": "function"
    },
    {
      "inputs": [
        {
          "internalType": "uint256",
          "name": "tokenId",
          "type": "uint256"
        }
      ],
      "name": "pickRandomThirdWord",
      "outputs": [
        {
          "internalType": "string",
          "name": "",
          "type": "string"
        }
      ],
      "stateMutability": "view",
      "type": "function"
    },
    {
      "inputs": [
        {
          "internalType": "address",
          "name": "from",
          "type": "address"
        },
        {
          "internalType": "address",
          "name": "to",
          "type": "address"
        },
        {
          "internalType": "uint256",
          "name": "tokenId",
          "type": "uint256"
        }
      ],
      "name": "safeTransferFrom",
      "outputs": [],
      "stateMutability": "nonpayable",
      "type": "function"
    },
    {
      "inputs": [
        {
          "internalType": "address",
          "name": "from",
          "type": "address"
        },
        {
          "internalType": "address",
          "name": "to",
          "type": "address"
        },
        {
          "internalType": "uint256",
          "name": "tokenId",
          "type": "uint256"
        },
        {
          "internalType": "bytes",
          "name": "data",
          "type": "bytes"
        }
      ],
      "name": "safeTransferFrom",
      "outputs": [],
      "stateMutability": "nonpayable",
      "type": "function"
    },
    {
      "inputs": [
        {
          "internalType": "address",
          "name": "operator",
          "type": "address"
        },
        {
          "internalType": "bool",
          "name": "approved",
          "type": "bool"
        }
      ],
      "name": "setApprovalForAll",
      "outputs": [],
      "stateMutability": "nonpayable",
      "type": "function"
    },
    {
      "inputs": [
        {
          "internalType": "bytes4",
          "name": "interfaceId",
          "type": "bytes4"
        }
      ],
      "name": "supportsInterface",
      "outputs": [
        {
          "internalType": "bool",
          "name": "",
          "type": "bool"
        }
      ],
      "stateMutability": "view",
      "type": "function"
    },
    {
      "inputs": [],
      "name": "symbol",
      "outputs": [
        {
          "internalType": "string",
          "name": "",
          "type": "string"
        }
      ],
      "stateMutability": "view",
      "type": "function"
    },
    {
      "inputs": [
        {
          "internalType": "uint256",
          "name": "tokenId",
          "type": "uint256"
        }
      ],
      "name": "tokenURI",
      "outputs": [
        {
          "internalType": "string",
          "name": "",
          "type": "string"
        }
      ],
      "stateMutability": "view",
      "type": "function"
    },
    {
      "inputs": [
        {
          "internalType": "address",
          "name": "from",
          "type": "address"
        },
        {
          "internalType": "address",
          "name": "to",
          "type": "address"
        },
        {
          "internalType": "uint256",
          "name": "tokenId",
          "type": "uint256"
        }
      ],
      "name": "transferFrom",
      "outputs": [],
      "stateMutability": "nonpayable",
      "type": "function"
    }
  ],
  "bytecode": "0x6080604052604051806101e001604052806101aa81526020016200462b6101aa91396008908051906020019062000038929190620007f6565b506040518061014001604052806101078152602001620045246101079139600990805190602001906200006d929190620007f6565b506040518060a001604052806040518060400160405280600981526020017f54756261696e612031000000000000000000000000000000000000000000000081525081526020016040518060400160405280600781526020017f47756172616e610000000000000000000000000000000000000000000000000081525081526020016040518060400160405280600581526020017f46616e746100000000000000000000000000000000000000000000000000000081525081526020016040518060400160405280600481526020017f446f6c790000000000000000000000000000000000000000000000000000000081525081526020016040518060400160405280600781526020017f4772617065746500000000000000000000000000000000000000000000000000815250815250600a906005620001b092919062000887565b506040518060c001604052806040518060400160405280600781526020017f4d6f71756563610000000000000000000000000000000000000000000000000081525081526020016040518060400160405280600881526020017f4665696a6f61646100000000000000000000000000000000000000000000000081525081526020016040518060400160405280600681526020017f566174617061000000000000000000000000000000000000000000000000000081525081526020016040518060400160405280600781526020017f41636172616a650000000000000000000000000000000000000000000000000081525081526020016040518060400160405280600681526020017f526162616461000000000000000000000000000000000000000000000000000081525081526020016040518060400160405280600a81526020017f446f62726164696e686100000000000000000000000000000000000000000000815250815250600b9060066200032e929190620008ee565b506040518060c001604052806040518060400160405280600881526020017f4d61726163756a6100000000000000000000000000000000000000000000000081525081526020016040518060400160405280600781526020017f506974616e67610000000000000000000000000000000000000000000000000081525081526020016040518060400160405280600881526020017f47726176696f6c6100000000000000000000000000000000000000000000000081525081526020016040518060400160405280600481526020017f416361690000000000000000000000000000000000000000000000000000000081525081526020016040518060400160405280600681526020017f42616e616e61000000000000000000000000000000000000000000000000000081525081526020016040518060400160405280600581526020017f416d6f7261000000000000000000000000000000000000000000000000000000815250815250600c906006620004ac929190620008ee565b506040518060c001604052806040518060400160405280600381526020017f726564000000000000000000000000000000000000000000000000000000000081525081526020016040518060400160405280600781526020017f233038433241380000000000000000000000000000000000000000000000000081525081526020016040518060400160405280600581526020017f626c61636b00000000000000000000000000000000000000000000000000000081525081526020016040518060400160405280600681526020017f79656c6c6f77000000000000000000000000000000000000000000000000000081525081526020016040518060400160405280600481526020017f626c75650000000000000000000000000000000000000000000000000000000081525081526020016040518060400160405280600581526020017f677265656e000000000000000000000000000000000000000000000000000000815250815250600d9060066200062a929190620008ee565b503480156200063857600080fd5b506040518060400160405280600981526020017f4368617665734e465400000000000000000000000000000000000000000000008152506040518060400160405280600581526020017f434841564f0000000000000000000000000000000000000000000000000000008152508160009080519060200190620006bd929190620007f6565b508060019080519060200190620006d6929190620007f6565b505050620007246040518060400160405280601c81526020017f4d657520636f6e747261746f206465204e46542120546368752d6875000000008152506200072a60201b620011661760201c565b62000b0f565b620007ca8160405160240162000741919062000a86565b6040516020818303038152906040527f41304fac000000000000000000000000000000000000000000000000000000007bffffffffffffffffffffffffffffffffffffffffffffffffffffffff19166020820180517bffffffffffffffffffffffffffffffffffffffffffffffffffffffff8381831617835250505050620007cd60201b60201c565b50565b60008151905060006a636f6e736f6c652e6c6f679050602083016000808483855afa5050505050565b828054620008049062000ad9565b90600052602060002090601f01602090048101928262000828576000855562000874565b82601f106200084357805160ff191683800117855562000874565b8280016001018555821562000874579182015b828111156200087357825182559160200191906001019062000856565b5b50905062000883919062000955565b5090565b828054828255906000526020600020908101928215620008db579160200282015b82811115620008da578251829080519060200190620008c9929190620007f6565b5091602001919060010190620008a8565b5b509050620008ea919062000974565b5090565b82805482825590600052602060002090810192821562000942579160200282015b828111156200094157825182908051906020019062000930929190620007f6565b50916020019190600101906200090f565b5b50905062000951919062000974565b5090565b5b808211156200097057600081600090555060010162000956565b5090565b5b808211156200099857600081816200098e91906200099c565b5060010162000975565b5090565b508054620009aa9062000ad9565b6000825580601f10620009be5750620009df565b601f016020900490600052602060002090810190620009de919062000955565b5b50565b600081519050919050565b600082825260208201905092915050565b60005b8381101562000a1e57808201518184015260208101905062000a01565b8381111562000a2e576000848401525b50505050565b6000601f19601f8301169050919050565b600062000a5282620009e2565b62000a5e8185620009ed565b935062000a70818560208601620009fe565b62000a7b8162000a34565b840191505092915050565b6000602082019050818103600083015262000aa2818462000a45565b905092915050565b7f4e487b7100000000000000000000000000000000000000000000000000000000600052602260045260246000fd5b6000600282049050600182168062000af257607f821691505b6020821081141562000b095762000b0862000aaa565b5b50919050565b613a058062000b1f6000396000f3fe608060405234801561001057600080fd5b50600436106101215760003560e01c80636352211e116100ad578063b88d4fde11610071578063b88d4fde14610340578063c575757a1461035c578063c87b56dd1461038c578063de9d132f146103bc578063e985e9c5146103c657610121565b80636352211e1461027657806370a08231146102a657806395d89b41146102d6578063a22cb465146102f4578063b187301f1461031057610121565b806323b872dd116100f457806323b872dd146101c05780632de38d68146101dc57806342842e0e1461020c578063514dc8c614610228578063561892361461025857610121565b806301ffc9a71461012657806306fdde0314610156578063081812fc14610174578063095ea7b3146101a4575b600080fd5b610140600480360381019061013b919061248c565b6103f6565b60405161014d91906124d4565b60405180910390f35b61015e6104d8565b60405161016b9190612588565b60405180910390f35b61018e600480360381019061018991906125e0565b61056a565b60405161019b919061264e565b60405180910390f35b6101be60048036038101906101b99190612695565b6105b0565b005b6101da60048036038101906101d591906126d5565b6106c8565b005b6101f660048036038101906101f191906125e0565b610728565b6040516102039190612588565b60405180910390f35b610226600480360381019061022191906126d5565b610820565b005b610242600480360381019061023d91906125e0565b610840565b60405161024f9190612588565b60405180910390f35b610260610938565b60405161026d9190612737565b60405180910390f35b610290600480360381019061028b91906125e0565b610949565b60405161029d919061264e565b60405180910390f35b6102c060048036038101906102bb9190612752565b6109d0565b6040516102cd9190612737565b60405180910390f35b6102de610a88565b6040516102eb9190612588565b60405180910390f35b61030e600480360381019061030991906127ab565b610b1a565b005b61032a600480360381019061032591906125e0565b610b30565b6040516103379190612588565b60405180910390f35b61035a60048036038101906103559190612920565b610c28565b005b610376600480360381019061037191906125e0565b610c8a565b6040516103839190612588565b60405180910390f35b6103a660048036038101906103a191906125e0565b610d82565b6040516103b39190612588565b60405180910390f35b6103c4610e95565b005b6103e060048036038101906103db91906129a3565b6110d2565b6040516103ed91906124d4565b60405180910390f35b60007f80ac58cd000000000000000000000000000000000000000000000000000000007bffffffffffffffffffffffffffffffffffffffffffffffffffffffff1916827bffffffffffffffffffffffffffffffffffffffffffffffffffffffff191614806104c157507f5b5e139f000000000000000000000000000000000000000000000000000000007bffffffffffffffffffffffffffffffffffffffffffffffffffffffff1916827bffffffffffffffffffffffffffffffffffffffffffffffffffffffff1916145b806104d157506104d0826111ff565b5b9050919050565b6060600080546104e790612a12565b80601f016020809104026020016040519081016040528092919081815260200182805461051390612a12565b80156105605780601f1061053557610100808354040283529160200191610560565b820191906000526020600020905b81548152906001019060200180831161054357829003601f168201915b5050505050905090565b600061057582611269565b6004600083815260200190815260200160002060009054906101000a900473ffffffffffffffffffffffffffffffffffffffff169050919050565b60006105bb82610949565b90508073ffffffffffffffffffffffffffffffffffffffff168373ffffffffffffffffffffffffffffffffffffffff16141561062c576040517f08c379a000000000000000000000000000000000000000000000000000000000815260040161062390612ab6565b60405180910390fd5b8073ffffffffffffffffffffffffffffffffffffffff1661064b6112b4565b73ffffffffffffffffffffffffffffffffffffffff16148061067a5750610679816106746112b4565b6110d2565b5b6106b9576040517f08c379a00000000000000000000000000000000000000000000000000000000081526004016106b090612b48565b60405180910390fd5b6106c383836112bc565b505050565b6106d96106d36112b4565b82611375565b610718576040517f08c379a000000000000000000000000000000000000000000000000000000000815260040161070f90612bda565b60405180910390fd5b61072383838361140a565b505050565b6060600061075c61073884611704565b6040516020016107489190612c82565b6040516020818303038152906040526117dc565b9050600a805490508161076f9190612cd3565b9050600a818154811061078557610784612d04565b5b90600052602060002001805461079a90612a12565b80601f01602080910402602001604051908101604052809291908181526020018280546107c690612a12565b80156108135780601f106107e857610100808354040283529160200191610813565b820191906000526020600020905b8154815290600101906020018083116107f657829003601f168201915b5050505050915050919050565b61083b83838360405180602001604052806000815250610c28565b505050565b6060600061087461085084611704565b6040516020016108609190612d7f565b6040516020818303038152906040526117dc565b9050600d80549050816108879190612cd3565b9050600d818154811061089d5761089c612d04565b5b9060005260206000200180546108b290612a12565b80601f01602080910402602001604051908101604052809291908181526020018280546108de90612a12565b801561092b5780601f106109005761010080835404028352916020019161092b565b820191906000526020600020905b81548152906001019060200180831161090e57829003601f168201915b5050505050915050919050565b6000610944600761180f565b905090565b6000806109558361181d565b9050600073ffffffffffffffffffffffffffffffffffffffff168173ffffffffffffffffffffffffffffffffffffffff1614156109c7576040517f08c379a00000000000000000000000000000000000000000000000000000000081526004016109be90612ded565b60405180910390fd5b80915050919050565b60008073ffffffffffffffffffffffffffffffffffffffff168273ffffffffffffffffffffffffffffffffffffffff161415610a41576040517f08c379a0000000000000000000000000000000000000000000000000000000008152600401610a3890612e7f565b60405180910390fd5b600360008373ffffffffffffffffffffffffffffffffffffffff1673ffffffffffffffffffffffffffffffffffffffff168152602001908152602001600020549050919050565b606060018054610a9790612a12565b80601f0160208091040260200160405190810160405280929190818152602001828054610ac390612a12565b8015610b105780601f10610ae557610100808354040283529160200191610b10565b820191906000526020600020905b815481529060010190602001808311610af357829003601f168201915b5050505050905090565b610b2c610b256112b4565b838361185a565b5050565b60606000610b64610b4084611704565b604051602001610b509190612eeb565b6040516020818303038152906040526117dc565b9050600b8054905081610b779190612cd3565b9050600b8181548110610b8d57610b8c612d04565b5b906000526020600020018054610ba290612a12565b80601f0160208091040260200160405190810160405280929190818152602001828054610bce90612a12565b8015610c1b5780601f10610bf057610100808354040283529160200191610c1b565b820191906000526020600020905b815481529060010190602001808311610bfe57829003601f168201915b5050505050915050919050565b610c39610c336112b4565b83611375565b610c78576040517f08c379a0000000000000000000000000000000000000000000000000000000008152600401610c6f90612bda565b60405180910390fd5b610c84848484846119c7565b50505050565b60606000610cbe610c9a84611704565b604051602001610caa9190612f59565b6040516020818303038152906040526117dc565b9050600c8054905081610cd19190612cd3565b9050600c8181548110610ce757610ce6612d04565b5b906000526020600020018054610cfc90612a12565b80601f0160208091040260200160405190810160405280929190818152602001828054610d2890612a12565b8015610d755780601f10610d4a57610100808354040283529160200191610d75565b820191906000526020600020905b815481529060010190602001808311610d5857829003601f168201915b5050505050915050919050565b6060610d8d82611269565b6000600660008481526020019081526020016000208054610dad90612a12565b80601f0160208091040260200160405190810160405280929190818152602001828054610dd990612a12565b8015610e265780601f10610dfb57610100808354040283529160200191610e26565b820191906000526020600020905b815481529060010190602001808311610e0957829003601f168201915b505050505090506000610e37611a23565b9050600081511415610e4d578192505050610e90565b600082511115610e82578082604051602001610e6a929190612f7b565b60405160208183030381529060405292505050610e90565b610e8b84611a3a565b925050505b919050565b6000610ea1600761180f565b905060328110610ee6576040517f08c379a0000000000000000000000000000000000000000000000000000000008152600401610edd90612feb565b60405180910390fd5b6000610ef182610728565b90506000610efe83610b30565b90506000610f0b84610c8a565b90506000838383604051602001610f249392919061300b565b60405160208183030381529060405290506000610f4086610840565b90506000600882600985604051602001610f5d949392919061311c565b60405160208183030381529060405290506000610fa284610f7d84611aa2565b604051602001610f8e9291906132bb565b604051602081830303815290604052611aa2565b9050600081604051602001610fb7919061334c565b60405160208183030381529060405290506110066040518060400160405280601581526020017f0a2d2d2d2d2d2d2d2d2d2d2d2d2d2d2d2d2d2d2d2d0000000000000000000000815250611166565b61100f81611166565b61104d6040518060400160405280601581526020017f2d2d2d2d2d2d2d2d2d2d2d2d2d2d2d2d2d2d2d2d0a0000000000000000000000815250611166565b611057338a611c3a565b6110618982611c58565b61106b6007611ccc565b61108e60405180606001604052806024815260200161396c602491398a33611ce2565b7febb98688741ffa4c7589bf325de30cf7becb63de567842e1ccdb6cb949fdc82c338a6040516110bf92919061336e565b60405180910390a1505050505050505050565b6000600560008473ffffffffffffffffffffffffffffffffffffffff1673ffffffffffffffffffffffffffffffffffffffff16815260200190815260200160002060008373ffffffffffffffffffffffffffffffffffffffff1673ffffffffffffffffffffffffffffffffffffffff16815260200190815260200160002060009054906101000a900460ff16905092915050565b6111fc8160405160240161117a9190612588565b6040516020818303038152906040527f41304fac000000000000000000000000000000000000000000000000000000007bffffffffffffffffffffffffffffffffffffffffffffffffffffffff19166020820180517bffffffffffffffffffffffffffffffffffffffffffffffffffffffff8381831617835250505050611d81565b50565b60007f01ffc9a7000000000000000000000000000000000000000000000000000000007bffffffffffffffffffffffffffffffffffffffffffffffffffffffff1916827bffffffffffffffffffffffffffffffffffffffffffffffffffffffff1916149050919050565b61127281611daa565b6112b1576040517f08c379a00000000000000000000000000000000000000000000000000000000081526004016112a890612ded565b60405180910390fd5b50565b600033905090565b816004600083815260200190815260200160002060006101000a81548173ffffffffffffffffffffffffffffffffffffffff021916908373ffffffffffffffffffffffffffffffffffffffff160217905550808273ffffffffffffffffffffffffffffffffffffffff1661132f83610949565b73ffffffffffffffffffffffffffffffffffffffff167f8c5be1e5ebec7d5bd14f71427d1e84f3dd0314c0f7b2291e5b200ac8c7c3b92560405160405180910390a45050565b60008061138183610949565b90508073ffffffffffffffffffffffffffffffffffffffff168473ffffffffffffffffffffffffffffffffffffffff1614806113c357506113c281856110d2565b5b8061140157508373ffffffffffffffffffffffffffffffffffffffff166113e98461056a565b73ffffffffffffffffffffffffffffffffffffffff16145b91505092915050565b8273ffffffffffffffffffffffffffffffffffffffff1661142a82610949565b73ffffffffffffffffffffffffffffffffffffffff1614611480576040517f08c379a000000000000000000000000000000000000000000000000000000000815260040161147790613409565b60405180910390fd5b600073ffffffffffffffffffffffffffffffffffffffff168273ffffffffffffffffffffffffffffffffffffffff1614156114f0576040517f08c379a00000000000000000000000000000000000000000000000000000000081526004016114e79061349b565b60405180910390fd5b6114fd8383836001611deb565b8273ffffffffffffffffffffffffffffffffffffffff1661151d82610949565b73ffffffffffffffffffffffffffffffffffffffff1614611573576040517f08c379a000000000000000000000000000000000000000000000000000000000815260040161156a90613409565b60405180910390fd5b6004600082815260200190815260200160002060006101000a81549073ffffffffffffffffffffffffffffffffffffffff02191690556001600360008573ffffffffffffffffffffffffffffffffffffffff1673ffffffffffffffffffffffffffffffffffffffff168152602001908152602001600020600082825403925050819055506001600360008473ffffffffffffffffffffffffffffffffffffffff1673ffffffffffffffffffffffffffffffffffffffff16815260200190815260200160002060008282540192505081905550816002600083815260200190815260200160002060006101000a81548173ffffffffffffffffffffffffffffffffffffffff021916908373ffffffffffffffffffffffffffffffffffffffff160217905550808273ffffffffffffffffffffffffffffffffffffffff168473ffffffffffffffffffffffffffffffffffffffff167fddf252ad1be2c89b69c2b068fc378daa952ba7f163c4a11628f55a4df523b3ef60405160405180910390a46116ff8383836001611df1565b505050565b60606000600161171384611df7565b01905060008167ffffffffffffffff811115611732576117316127f5565b5b6040519080825280601f01601f1916602001820160405280156117645781602001600182028036833780820191505090505b509050600082602001820190505b6001156117d1578080600190039150507f3031323334353637383961626364656600000000000000000000000000000000600a86061a8153600a85816117bb576117ba612ca4565b5b04945060008514156117cc576117d1565b611772565b819350505050919050565b6000816040516020016117ef91906134bb565b6040516020818303038152906040528051906020012060001c9050919050565b600081600001549050919050565b60006002600083815260200190815260200160002060009054906101000a900473ffffffffffffffffffffffffffffffffffffffff169050919050565b8173ffffffffffffffffffffffffffffffffffffffff168373ffffffffffffffffffffffffffffffffffffffff1614156118c9576040517f08c379a00000000000000000000000000000000000000000000000000000000081526004016118c09061351e565b60405180910390fd5b80600560008573ffffffffffffffffffffffffffffffffffffffff1673ffffffffffffffffffffffffffffffffffffffff16815260200190815260200160002060008473ffffffffffffffffffffffffffffffffffffffff1673ffffffffffffffffffffffffffffffffffffffff16815260200190815260200160002060006101000a81548160ff0219169083151502179055508173ffffffffffffffffffffffffffffffffffffffff168373ffffffffffffffffffffffffffffffffffffffff167f17307eab39ab6107e8899845ad3d59bd9653f200f220920489ca2b5937696c31836040516119ba91906124d4565b60405180910390a3505050565b6119d284848461140a565b6119de84848484611f4a565b611a1d576040517f08c379a0000000000000000000000000000000000000000000000000000000008152600401611a14906135b0565b60405180910390fd5b50505050565b606060405180602001604052806000815250905090565b6060611a4582611269565b6000611a4f611a23565b90506000815111611a6f5760405180602001604052806000815250611a9a565b80611a7984611704565b604051602001611a8a929190612f7b565b6040516020818303038152906040525b915050919050565b60606000825190506000811415611acb5760405180602001604052806000815250915050611c35565b60006003600283611adc91906135ff565b611ae69190613655565b6004611af29190613686565b90506000602082611b0391906135ff565b67ffffffffffffffff811115611b1c57611b1b6127f5565b5b6040519080825280601f01601f191660200182016040528015611b4e5781602001600182028036833780820191505090505b5090506000604051806060016040528060408152602001613990604091399050600181016020830160005b86811015611bf25760038101905062ffffff818a015116603f8160121c168401518060081b905060ff603f83600c1c1686015116810190508060081b905060ff603f8360061c1686015116810190508060081b905060ff603f831686015116810190508060e01b90508084526004840193505050611b79565b506003860660018114611c0c5760028114611c1c57611c27565b613d3d60f01b6002830352611c27565b603d60f81b60018303525b508484525050819450505050505b919050565b611c548282604051806020016040528060008152506120e1565b5050565b611c6182611daa565b611ca0576040517f08c379a0000000000000000000000000000000000000000000000000000000008152600401611c9790613752565b60405180910390fd5b80600660008481526020019081526020016000209080519060200190611cc792919061237d565b505050565b6001816000016000828254019250508190555050565b611d7c838383604051602401611cfa93929190613772565b6040516020818303038152906040527f1c7ec448000000000000000000000000000000000000000000000000000000007bffffffffffffffffffffffffffffffffffffffffffffffffffffffff19166020820180517bffffffffffffffffffffffffffffffffffffffffffffffffffffffff8381831617835250505050611d81565b505050565b60008151905060006a636f6e736f6c652e6c6f679050602083016000808483855afa5050505050565b60008073ffffffffffffffffffffffffffffffffffffffff16611dcc8361181d565b73ffffffffffffffffffffffffffffffffffffffff1614159050919050565b50505050565b50505050565b600080600090507a184f03e93ff9f4daa797ed6e38ed64bf6a1f0100000000000000008310611e55577a184f03e93ff9f4daa797ed6e38ed64bf6a1f0100000000000000008381611e4b57611e4a612ca4565b5b0492506040810190505b6d04ee2d6d415b85acef81000000008310611e92576d04ee2d6d415b85acef81000000008381611e8857611e87612ca4565b5b0492506020810190505b662386f26fc100008310611ec157662386f26fc100008381611eb757611eb6612ca4565b5b0492506010810190505b6305f5e1008310611eea576305f5e1008381611ee057611edf612ca4565b5b0492506008810190505b6127108310611f0f576127108381611f0557611f04612ca4565b5b0492506004810190505b60648310611f325760648381611f2857611f27612ca4565b5b0492506002810190505b600a8310611f41576001810190505b80915050919050565b6000611f6b8473ffffffffffffffffffffffffffffffffffffffff1661213c565b156120d4578373ffffffffffffffffffffffffffffffffffffffff1663150b7a02611f946112b4565b8786866040518563ffffffff1660e01b8152600401611fb69493929190613805565b602060405180830381600087803b158015611fd057600080fd5b505af192505050801561200157506040513d601f19601f82011682018060405250810190611ffe9190613866565b60015b612084573d8060008114612031576040519150601f19603f3d011682016040523d82523d6000602084013e612036565b606091505b5060008151141561207c576040517f08c379a0000000000000000000000000000000000000000000000000000000008152600401612073906135b0565b60405180910390fd5b805181602001fd5b63150b7a0260e01b7bffffffffffffffffffffffffffffffffffffffffffffffffffffffff1916817bffffffffffffffffffffffffffffffffffffffffffffffffffffffff1916149150506120d9565b600190505b949350505050565b6120eb838361215f565b6120f86000848484611f4a565b612137576040517f08c379a000000000000000000000000000000000000000000000000000000000815260040161212e906135b0565b60405180910390fd5b505050565b6000808273ffffffffffffffffffffffffffffffffffffffff163b119050919050565b600073ffffffffffffffffffffffffffffffffffffffff168273ffffffffffffffffffffffffffffffffffffffff1614156121cf576040517f08c379a00000000000000000000000000000000000000000000000000000000081526004016121c6906138df565b60405180910390fd5b6121d881611daa565b15612218576040517f08c379a000000000000000000000000000000000000000000000000000000000815260040161220f9061394b565b60405180910390fd5b612226600083836001611deb565b61222f81611daa565b1561226f576040517f08c379a00000000000000000000000000000000000000000000000000000000081526004016122669061394b565b60405180910390fd5b6001600360008473ffffffffffffffffffffffffffffffffffffffff1673ffffffffffffffffffffffffffffffffffffffff16815260200190815260200160002060008282540192505081905550816002600083815260200190815260200160002060006101000a81548173ffffffffffffffffffffffffffffffffffffffff021916908373ffffffffffffffffffffffffffffffffffffffff160217905550808273ffffffffffffffffffffffffffffffffffffffff16600073ffffffffffffffffffffffffffffffffffffffff167fddf252ad1be2c89b69c2b068fc378daa952ba7f163c4a11628f55a4df523b3ef60405160405180910390a4612379600083836001611df1565b5050565b82805461238990612a12565b90600052602060002090601f0160209004810192826123ab57600085556123f2565b82601f106123c457805160ff19168380011785556123f2565b828001600101855582156123f2579182015b828111156123f15782518255916020019190600101906123d6565b5b5090506123ff9190612403565b5090565b5b8082111561241c576000816000905550600101612404565b5090565b6000604051905090565b600080fd5b600080fd5b60007fffffffff0000000000000000000000000000000000000000000000000000000082169050919050565b61246981612434565b811461247457600080fd5b50565b60008135905061248681612460565b92915050565b6000602082840312156124a2576124a161242a565b5b60006124b084828501612477565b91505092915050565b60008115159050919050565b6124ce816124b9565b82525050565b60006020820190506124e960008301846124c5565b92915050565b600081519050919050565b600082825260208201905092915050565b60005b8381101561252957808201518184015260208101905061250e565b83811115612538576000848401525b50505050565b6000601f19601f8301169050919050565b600061255a826124ef565b61256481856124fa565b935061257481856020860161250b565b61257d8161253e565b840191505092915050565b600060208201905081810360008301526125a2818461254f565b905092915050565b6000819050919050565b6125bd816125aa565b81146125c857600080fd5b50565b6000813590506125da816125b4565b92915050565b6000602082840312156125f6576125f561242a565b5b6000612604848285016125cb565b91505092915050565b600073ffffffffffffffffffffffffffffffffffffffff82169050919050565b60006126388261260d565b9050919050565b6126488161262d565b82525050565b6000602082019050612663600083018461263f565b92915050565b6126728161262d565b811461267d57600080fd5b50565b60008135905061268f81612669565b92915050565b600080604083850312156126ac576126ab61242a565b5b60006126ba85828601612680565b92505060206126cb858286016125cb565b9150509250929050565b6000806000606084860312156126ee576126ed61242a565b5b60006126fc86828701612680565b935050602061270d86828701612680565b925050604061271e868287016125cb565b9150509250925092565b612731816125aa565b82525050565b600060208201905061274c6000830184612728565b92915050565b6000602082840312156127685761276761242a565b5b600061277684828501612680565b91505092915050565b612788816124b9565b811461279357600080fd5b50565b6000813590506127a58161277f565b92915050565b600080604083850312156127c2576127c161242a565b5b60006127d085828601612680565b92505060206127e185828601612796565b9150509250929050565b600080fd5b600080fd5b7f4e487b7100000000000000000000000000000000000000000000000000000000600052604160045260246000fd5b61282d8261253e565b810181811067ffffffffffffffff8211171561284c5761284b6127f5565b5b80604052505050565b600061285f612420565b905061286b8282612824565b919050565b600067ffffffffffffffff82111561288b5761288a6127f5565b5b6128948261253e565b9050602081019050919050565b82818337600083830152505050565b60006128c36128be84612870565b612855565b9050828152602081018484840111156128df576128de6127f0565b5b6128ea8482856128a1565b509392505050565b600082601f830112612907576129066127eb565b5b81356129178482602086016128b0565b91505092915050565b6000806000806080858703121561293a5761293961242a565b5b600061294887828801612680565b945050602061295987828801612680565b935050604061296a878288016125cb565b925050606085013567ffffffffffffffff81111561298b5761298a61242f565b5b612997878288016128f2565b91505092959194509250565b600080604083850312156129ba576129b961242a565b5b60006129c885828601612680565b92505060206129d985828601612680565b9150509250929050565b7f4e487b7100000000000000000000000000000000000000000000000000000000600052602260045260246000fd5b60006002820490506001821680612a2a57607f821691505b60208210811415612a3e57612a3d6129e3565b5b50919050565b7f4552433732313a20617070726f76616c20746f2063757272656e74206f776e6560008201527f7200000000000000000000000000000000000000000000000000000000000000602082015250565b6000612aa06021836124fa565b9150612aab82612a44565b604082019050919050565b60006020820190508181036000830152612acf81612a93565b9050919050565b7f4552433732313a20617070726f76652063616c6c6572206973206e6f7420746f60008201527f6b656e206f776e6572206f7220617070726f76656420666f7220616c6c000000602082015250565b6000612b32603d836124fa565b9150612b3d82612ad6565b604082019050919050565b60006020820190508181036000830152612b6181612b25565b9050919050565b7f4552433732313a2063616c6c6572206973206e6f7420746f6b656e206f776e6560008201527f72206f7220617070726f76656400000000000000000000000000000000000000602082015250565b6000612bc4602d836124fa565b9150612bcf82612b68565b604082019050919050565b60006020820190508181036000830152612bf381612bb7565b9050919050565b600081905092915050565b7f5052494d454952415f50414c4156524100000000000000000000000000000000600082015250565b6000612c3b601083612bfa565b9150612c4682612c05565b601082019050919050565b6000612c5c826124ef565b612c668185612bfa565b9350612c7681856020860161250b565b80840191505092915050565b6000612c8d82612c2e565b9150612c998284612c51565b915081905092915050565b7f4e487b7100000000000000000000000000000000000000000000000000000000600052601260045260246000fd5b6000612cde826125aa565b9150612ce9836125aa565b925082612cf957612cf8612ca4565b5b828206905092915050565b7f4e487b7100000000000000000000000000000000000000000000000000000000600052603260045260246000fd5b7f434f4c4f52000000000000000000000000000000000000000000000000000000600082015250565b6000612d69600583612bfa565b9150612d7482612d33565b600582019050919050565b6000612d8a82612d5c565b9150612d968284612c51565b915081905092915050565b7f4552433732313a20696e76616c696420746f6b656e2049440000000000000000600082015250565b6000612dd76018836124fa565b9150612de282612da1565b602082019050919050565b60006020820190508181036000830152612e0681612dca565b9050919050565b7f4552433732313a2061646472657373207a65726f206973206e6f74206120766160008201527f6c6964206f776e65720000000000000000000000000000000000000000000000602082015250565b6000612e696029836124fa565b9150612e7482612e0d565b604082019050919050565b60006020820190508181036000830152612e9881612e5c565b9050919050565b7f534547554e44415f50414c415652410000000000000000000000000000000000600082015250565b6000612ed5600f83612bfa565b9150612ee082612e9f565b600f82019050919050565b6000612ef682612ec8565b9150612f028284612c51565b915081905092915050565b7f54455243454952415f50414c4156524100000000000000000000000000000000600082015250565b6000612f43601083612bfa565b9150612f4e82612f0d565b601082019050919050565b6000612f6482612f36565b9150612f708284612c51565b915081905092915050565b6000612f878285612c51565b9150612f938284612c51565b91508190509392505050565b7f546f74616c206d696e7420616d6f756e74207265616368656400000000000000600082015250565b6000612fd56019836124fa565b9150612fe082612f9f565b602082019050919050565b6000602082019050818103600083015261300481612fc8565b9050919050565b60006130178286612c51565b91506130238285612c51565b915061302f8284612c51565b9150819050949350505050565b60008190508160005260206000209050919050565b6000815461305e81612a12565b6130688186612bfa565b945060018216600081146130835760018114613094576130c7565b60ff198316865281860193506130c7565b61309d8561303c565b60005b838110156130bf578154818901526001820191506020810190506130a0565b838801955050505b50505092915050565b7f3c2f746578743e3c2f7376673e00000000000000000000000000000000000000600082015250565b6000613106600d83612bfa565b9150613111826130d0565b600d82019050919050565b60006131288287613051565b91506131348286612c51565b91506131408285613051565b915061314c8284612c51565b9150613157826130f9565b915081905095945050505050565b7f7b226e616d65223a202200000000000000000000000000000000000000000000600082015250565b600061319b600a83612bfa565b91506131a682613165565b600a82019050919050565b7f222c20226465736372697074696f6e223a2022556d6120636f6c6563616f206160008201527f636c616d61646120652066616d6f7361206465204e465473206d61726176696c60208201527f686f736f732e222c2022696d616765223a2022646174613a696d6167652f737660408201527f672b786d6c3b6261736536342c00000000000000000000000000000000000000606082015250565b6000613259606d83612bfa565b9150613264826131b1565b606d82019050919050565b7f227d000000000000000000000000000000000000000000000000000000000000600082015250565b60006132a5600283612bfa565b91506132b08261326f565b600282019050919050565b60006132c68261318e565b91506132d28285612c51565b91506132dd8261324c565b91506132e98284612c51565b91506132f482613298565b91508190509392505050565b7f646174613a6170706c69636174696f6e2f6a736f6e3b6261736536342c000000600082015250565b6000613336601d83612bfa565b915061334182613300565b601d82019050919050565b600061335782613329565b91506133638284612c51565b915081905092915050565b6000604082019050613383600083018561263f565b6133906020830184612728565b9392505050565b7f4552433732313a207472616e736665722066726f6d20696e636f72726563742060008201527f6f776e6572000000000000000000000000000000000000000000000000000000602082015250565b60006133f36025836124fa565b91506133fe82613397565b604082019050919050565b60006020820190508181036000830152613422816133e6565b9050919050565b7f4552433732313a207472616e7366657220746f20746865207a65726f2061646460008201527f7265737300000000000000000000000000000000000000000000000000000000602082015250565b60006134856024836124fa565b915061349082613429565b604082019050919050565b600060208201905081810360008301526134b481613478565b9050919050565b60006134c78284612c51565b915081905092915050565b7f4552433732313a20617070726f766520746f2063616c6c657200000000000000600082015250565b60006135086019836124fa565b9150613513826134d2565b602082019050919050565b60006020820190508181036000830152613537816134fb565b9050919050565b7f4552433732313a207472616e7366657220746f206e6f6e20455243373231526560008201527f63656976657220696d706c656d656e7465720000000000000000000000000000602082015250565b600061359a6032836124fa565b91506135a58261353e565b604082019050919050565b600060208201905081810360008301526135c98161358d565b9050919050565b7f4e487b7100000000000000000000000000000000000000000000000000000000600052601160045260246000fd5b600061360a826125aa565b9150613615836125aa565b9250827fffffffffffffffffffffffffffffffffffffffffffffffffffffffffffffffff0382111561364a576136496135d0565b5b828201905092915050565b6000613660826125aa565b915061366b836125aa565b92508261367b5761367a612ca4565b5b828204905092915050565b6000613691826125aa565b915061369c836125aa565b9250817fffffffffffffffffffffffffffffffffffffffffffffffffffffffffffffffff04831182151516156136d5576136d46135d0565b5b828202905092915050565b7f45524337323155524953746f726167653a2055524920736574206f66206e6f6e60008201527f6578697374656e7420746f6b656e000000000000000000000000000000000000602082015250565b600061373c602e836124fa565b9150613747826136e0565b604082019050919050565b6000602082019050818103600083015261376b8161372f565b9050919050565b6000606082019050818103600083015261378c818661254f565b905061379b6020830185612728565b6137a8604083018461263f565b949350505050565b600081519050919050565b600082825260208201905092915050565b60006137d7826137b0565b6137e181856137bb565b93506137f181856020860161250b565b6137fa8161253e565b840191505092915050565b600060808201905061381a600083018761263f565b613827602083018661263f565b6138346040830185612728565b818103606083015261384681846137cc565b905095945050505050565b60008151905061386081612460565b92915050565b60006020828403121561387c5761387b61242a565b5b600061388a84828501613851565b91505092915050565b7f4552433732313a206d696e7420746f20746865207a65726f2061646472657373600082015250565b60006138c96020836124fa565b91506138d482613893565b602082019050919050565b600060208201905081810360008301526138f8816138bc565b9050919050565b7f4552433732313a20746f6b656e20616c7265616479206d696e74656400000000600082015250565b6000613935601c836124fa565b9150613940826138ff565b602082019050919050565b6000602082019050818103600083015261396481613928565b905091905056fe556d204e465420636f6d20494420257320666f692063756e6861646f20706172612025734142434445464748494a4b4c4d4e4f505152535455565758595a6162636465666768696a6b6c6d6e6f707172737475767778797a303132333435363738392b2fa2646970667358221220338a86b001a4495b9dd80d2fe1cfd12f7c10a6142d24576e842133cb3bf62d5d64736f6c634300080900333b207d202020202e73746f7032207b2073746f702d636f6c6f723a2077686974653b2073746f702d6f7061636974793a20303b207d202020202e73746f7033207b2073746f702d636f6c6f723a2079656c6c6f773b207d2020202020203c2f7374796c653e20203c726563742077696474683d273130302527206865696768743d2731303025272066696c6c3d2775726c28234772616469656e74312927202f3e20203c7465787420202020783d273530252720202020793d273530252720202020636c6173733d27626173652720202020646f6d696e616e742d626173656c696e653d276d6964646c652720202020746578742d616e63686f723d276d6964646c652720203e3c7376672020786d6c6e733d27687474703a2f2f7777772e77332e6f72672f323030302f7376672720207072657365727665417370656374526174696f3d27784d696e594d696e206d65657427202076696577426f783d273020302033353020333530273e20203c646566733e202020203c6c696e6561724772616469656e742069643d274772616469656e7431273e2020202020203c73746f7020636c6173733d2773746f703127206f66667365743d273025272f3e2020202020203c73746f7020636c6173733d2773746f703227206f66667365743d27353025272f3e2020202020203c73746f7020636c6173733d2773746f703327206f66667365743d2731303025272f3e202020203c2f6c696e6561724772616469656e743e20203c2f646566733e20203c7374796c653e202020202e62617365207b20202020202066696c6c3a20626c75653b202020202020666f6e742d66616d696c793a2073657269663b202020202020666f6e742d73697a653a20323070783b202020202020636f6c6f723a20234646463b202020207d202020202e73746f7031207b2073746f702d636f6c6f723a20",
  "linkReferences": {},
  "deployedLinkReferences": {}
}